:100000000C9436000C944B000C944B000C944B0059
:100010000C944B000C944B000C944B000C944B0034
:100020000C944B000C944B000C944B000C944B0024
:100030000C944B000C944B000C944B000C944B0014
:100040000C944B000C944B000C944B000C944B0004
:100050000C944B0004B6E704B6D304B6C704B6C389
:1000600002900703AC8103AC8002900011241FBEF4
:10007000CFE5D8E0DEBFCDBF11E0A0E6B0E0E0E321
:10008000F1E102C005900D92AE31B107D9F70E949F
:1000900070040C9496080C940000EF92FF920F935A
:1000A0001F93CF93DF9300D000D0CDB7DEB77C0194
:1000B00060E08DE00E94130383E9F701808380E212
:1000C00081838E010F5F1F4F970142E0B7018CE0E3
:1000D0000E945503813071F4F70197012C5F3F4F67
:1000E00090E041919427E217F307D9F7F7012481B3
:1000F000921383E00F900F900F900F90DF91CF91AC
:100100001F910F91FF90EF900895FC016083089577
:10011000FC0117B897B180818F71907E892B87B9C8
:1001200087EC86B9369A349BFECF84B195B1089599
:100130000895CF93DF930F92CDB7DEB787E0898321
:10014000CE0101960E9488009C01DF9A8155914062
:1001500087309105B0F08B5B9F4F87309105B0F0F1
:100160008C5B9F4F8730910598F08C5B9F4F079772
:1001700088F0205431098FEF2730310518F485E0DD
:1001800001C081E00F90DF91CF91089582E0FACF16
:1001900083E0F8CF84E0F6CF12BE1CBE83E083BFBD
:1001A00081E089BF7894089512BE8AEF8CBF83E006
:1001B00083BF82E089BF789408958F929F92AF9217
:1001C000BF92EF92FF920F931F93FC0147015801DA
:1001D00060834183228383829482A582B68290B514
:1001E0004130A1F5906290BD2130A1F580B580BD70
:1001F0006830C1F1A0F56630C1F16730D1F1A501D9
:10020000940184E0220F331F441F551F8A95D1F7B4
:1002100060E074E284EF90E00E949E058FEF820F11
:1002200089B92150310941095109232F342F452F14
:10023000552720BD8AB188618AB91F910F91FF901F
:10024000EF90BF90AF909F908F900895423059F6F5
:100250009063C9CF223061F680B58860C8CF69301D
:1002600071F6529A80B5866002C080B5826080BD0A
:10027000C6CF80B58460FBCF08955D9BFECF6CB97F
:1002800008950F931F93CF93DF938C01EB01699136
:10029000662321F0C8010E943D01F9CFDF91CF9183
:1002A0001F910F9108955F9BFECF8CB10895CF935E
:1002B000DF93D82FC62FC09882E00E940E038D2FA7
:1002C0000E940E038C2F0E940E03C09ADF91CF91E3
:1002D0000895CF93C82FC09883E00E940E038C2FFF
:1002E0000E940E038FEF0E940E03C09ACF910895D3
:1002F0001F93CF93DF93182FD62FC42FC09885E07C
:100300000E940E03812F0E940E038D2F0E940E0368
:100310008C2F0E940E03C09ADF91CF911F910895F8
:10032000C0980E940E038FEF0E940E03C09A08959A
:10033000EF92FF920F931F93CF93DF93883010F0CB
:1003400080E060C0C82FC09AB89AC49ABC9AC79877
:10035000C598C698BF9ABD9ABE980E940903C098D6
:1003600080EC0E940E038FE99FE00197F1F700C037
:100370000000C09A8FE39CE90197F1F700C00000EC
:10038000C09882E00E940E0388E20E940E03D0E033
:100390007E01EE0CFF1CEC0EFD1E00E010E0F801EB
:1003A000EE0DFF1DEC5AFF4F84910E940E030F5F6C
:1003B0001F4F0330110599F783E00E940E03C09A86
:1003C00060E08DE00E945701B998C19A60E08CE02E
:1003D0000E94570189E20E946901182FFE01EE0F69
:1003E000FF1FEC0FFD1FEB5AFF4FC49160E08FE041
:1003F0000E9457011C13A4CF8EE00E946901807EE9
:10040000D9F781E0DF91CF911F910F91FF90EF908D
:10041000089586B38695817091E08927089580EAD2
:100420000E949001982F947581E0943509F480E042
:100430000895EF92FF920F931F93CF93DF93EC01F8
:1004400080EB0E949001182F082F007486FD04C0D5
:1004500087FF3EC084E901C080E9C0980E940E0376
:10046000CE010E94D50280FF0FC0C09A40E0002359
:1004700031F061E08CE20E94780100E029C062E086
:100480008CE20E94780124C08FEF0E940E0313FBC0
:10049000992790F92A8190FB20F92A838F70E82E02
:1004A0008B832496F12CFE1431F08FEF0E940E0303
:1004B0008993F394F8CFC09A40E0002311F061E0F3
:1004C00001C062E08CE20E947801177001E0010F28
:1004D000802FDF91CF911F910F91FF90EF900895A2
:1004E000FF920F931F93CF93DF938C0180EA0E94BA
:1004F000900182FF06C084FF06C086FD37C0C4E0BD
:1005000003C0C0E001C0C2E0C0988C2F80640E948C
:100510000E03C8010E94BD02F801D381DF70828101
:1005200080FF05C08D2F80640E940E030FC08D2FA9
:100530000E940E030C5F1F4FF12CFD1639F0F801DD
:1005400081918F010E940E03F394F7CFC09AF5E0DA
:10055000FA95F1F70000C098C11101C0C1E08C2FDD
:1005600080680E940E03C09A8C2F01C080E0DF914A
:10057000CF911F910F91FF900895FC01208131814F
:1005800083E0369527958A95E1F72FB9808182958A
:10059000880F807E779BFECF9FB10E940E0380E084
:1005A0000E940E0380E00C940E031F93CF93DF9301
:1005B000EC018FEF0E940E03182F8FEF0E940E03A5
:1005C000282F8FEF23FF07C00E940E038FEF0E949A
:1005D0000E0381E01AC08FB938E0139FC0011124C7
:1005E00099838883779BFECF8FB18FEF8FB98881F6
:1005F000922F929596959770982B9883779BFECF24
:100600008FB1822F807124FD82E0DF91CF911F9105
:10061000089581E58DB981E08EB908958FB9779BF2
:10062000FECF8FB10895CF93C62FC498880F8E77D1
:100630000E940E038C2F0E940E03C49ACF9108953E
:10064000C498880F8E7780680E940E0380E00E9415
:100650000E03C49A08956FE081E00C9413030E9486
:100660002B036DE88AE20E9413036EE38BE20E9483
:1006700013036EE18CE20E94130360E08DE20E949E
:10068000130360E485E10E9413036DE381E10E949E
:10069000130384E10E942003982F937029F4682F9C
:1006A000636084E10C94130308953F924F925F922C
:1006B0006F927F928F929F92AF92BF92CF92DF9272
:1006C000EF92FF920F931F93CF93DF93D82E5B018E
:1006D000842E7901E8018CE0D81631F0EEE0DE16C8
:1006E00041F0312CC12C09C070E3372EE7E7CE2E44
:1006F00004C050E1352E62E1C62E84E00E94200342
:10070000682F6F7784E00E9413038AE00E94200321
:10071000682F60688AE00E94130360E081E00E9415
:1007200013038501412C512C3201912CA12CB12CA9
:10073000481459046A047B0460F4F80161918F0144
:1007400089E00E941303FFEF4F1A5F0A6F0A7F0AC6
:10075000EFCF6D2D81E00E9413038CE0D81208C00A
:100760008DE00E942003682F60688DE00E941303D3
:1007700040ED842E47E0942EA12CB12C132D116056
:1007800084E00E942003082FE1E08E1A9108A1085E
:10079000B10819F0812F802399F38DE00E94200386
:1007A000682F6F778DE00E94130389288A288B2891
:1007B00011F403E050C086E00E9420038B71C9F75A
:1007C0008C2D8170C82EC02211F002E001C001E022
:1007D000FCE0DF1240C08AE00E942003182F8CE06A
:1007E0000E942003282F2770812F90E049F0019765
:1007F00033E0880F991F3A95E1F7820F911D05C0EC
:1008000023E0880F991F2A95E1F7092E000CAA0B07
:10081000BB0B88839983AA83BB83112321F01131F9
:1008200018F010E101C011E0E701812C912C540176
:10083000C12ED12CE12CF12C8C149D04AE04BF04EC
:1008400050F489E00E94200389938FEF881A980A58
:10085000A80AB80AF1CF802FDF91CF911F910F9195
:10086000FF90EF90DF90CF90BF90AF909F908F90D0
:100870007F906F905F904F903F900895EF92FF921E
:100880000F931F93CF93DF9300D000D0CDB7DEB787
:10089000182F7B0167E08DE00E941303F70110839E
:1008A0008E010F5F1F4F970141E0B7018CE00E945E
:1008B0005503813049F449815A816B817C814031F3
:1008C00051056105710509F083E00F900F900F90BD
:1008D0000F90DF91CF911F910F91FF90EF900895AE
:1008E000CDB7DEB7C359D1090FB6F894DEBF0FBE3E
:1008F000CDBF8FEF84BB85BB86E00E9498010E942C
:100900002F0310E8E12E15E2F12E00E010E021E0C7
:1009100040E068E0CE0183579F4F0E94DD0087E2F0
:1009200090E0E7969FAF8EAFE797E8968FADE89798
:100930008E7FE8968FAFE89785E0E9968FAFE997CD
:1009400087E30E9420038E010F5F1F4F823909F059
:10095000E0C01F928F9380E690E09F938F931F9348
:100960000F930E94C005B801CE0183579F4F0E948C
:1009700041010F900F900F900F900F900F906EE924
:1009800070E0CE0183579F4F0E94410186ECC82E34
:1009900080E0D82E97EDA92E90E0B92EEE24E394B6
:1009A00027EF822E20E0922EBE016B597F4F82E509
:1009B0000E943E04F82E21E08213B0C061EA70E08C
:1009C000CE0183579F4F0E944101A6968FADA697F7
:1009D000843039F46EEA70E0CE0183579F4F0E9455
:1009E0004101A7968FADA7971F928F93A6968FADC3
:1009F000A6971F928F93DF92CF921F930F930E941F
:100A0000C005B801CE0183579F4F0E944101CE011E
:100A10008B599F4F0E944D00A9968FADA9971F92A9
:100A20008F93A8968FADA8971F928F93A7968FAD9F
:100A3000A7971F928F93A6968FADA6971F928F931D
:100A4000BF92AF921F930F930E94C005B801CE01D1
:100A500083579F4F0E944101EA96EFAEEA97A69610
:100A60008FADA697EB968FAFEB97A7968FADA79715
:100A7000EC968FAFEC97A8968FADA897ED968FAFB9
:100A8000ED97A9968FADA997EE968FAFEE97CE0111
:100A90008B589F4F0E9470020FB6F894DEBF0FBEB6
:100AA000CDBF6EE970E0CE0183579F4F0E94410198
:100AB0000E940902882319F1CE018F579F4F0E948F
:100AC0001902CE57DF4F8881C258D0408F93CF573D
:100AD000DF4F8881C158D0408F939F928F921F9390
:100AE0000F930E94C005B801CE0183579F4F0E940B
:100AF00041010F900F900F900F900F900F909FEF6C
:100B000023ED80E3915020408040E1F700C00000D9
:100B10004BCF1F928F938DE790E01FCF68EE70E070
:100B2000CE0183579F4F0E944101EA96FFAEEA979C
:100B3000CE018B589F4F0E947002B3CFA1E21A2EB4
:100B4000AA1BBB1BFD010DC0AA1FBB1FEE1FFF1F71
:100B5000A217B307E407F50720F0A21BB30BE40BC1
:100B6000F50B661F771F881F991F1A9469F7609508
:100B70007095809590959B01AC01BD01CF010895C2
:100B8000AEE0B0E0E6ECF5E00C946D080D891E894E
:100B900086E08C831A8309838FEF9FE79E838D8382
:100BA000AE01475E5F4F6F89788DCE0101960E943E
:100BB000E3052F813885020F131FF80110822E964E
:100BC000E4E00C948908AFE0B0E0E9EEF5E00C94C5
:100BD0005F087C013B018A01DC0117961C921E9282
:100BE000169713968C9181FFC3C19AE0292EFE01BE
:100BF00031964F01D70113969C91F30193FD859196
:100C000093FF81913F01882309F448C1853239F46B
:100C100093FD859193FF81913F01853229F4B701BE
:100C200090E00E94D107E6CFB12C412C512CBFE1BE
:100C3000B51538F08B3209F188F4803201F1833236
:100C400021F157FC3AC020ED280F2A3040F556FE1E
:100C50001FC0B29C200D1124B22E06C08D3291F01F
:100C6000803379F7689450F8F30193FD859193FFF1
:100C700081913F018111DBCF20C0689451F86894C5
:100C800052F8F2CF689453F8EFCF689454F8ECCF51
:100C9000429C200D1124422E689455F8E5CF8E32E7
:100CA00029F456FCFBC0689456F8DECF8C3619F454
:100CB000689457F8D9CF8836B9F2982F9F7D95540C
:100CC0009330C0F08336A1F18337C1F1833509F049
:100CD0005BC0D801CD90DD908D016B2D70E056FC8E
:100CE00002C06FEF7FEFC6010E94BB075C016894F2
:100CF00057F80AC00C5F1F4FEFE3E983AA24A394BF
:100D0000B12C6401E89457F853FC04C04A141B0446
:100D100009F018F5342CA114B10431F5332009F48D
:100D200069CFB70180E290E00E94D1073A94F6CFF4
:100D3000D8018C9189830E5F1F4FE0CFF801C190DD
:100D4000D1908F016B2D70E056FC02C06FEF7FEFEA
:100D5000C6010E94C6075C01D5CFB70180E290E0D2
:100D60000E94D1074A94D2CFF60157FC859157FED5
:100D700081916F01B70190E00E94D10731103A9440
:100D8000B1E0AB1AB108C7CF843619F0893609F043
:100D900074C0F80157FE6AC061917191819191917F
:100DA0008F01E52DEF76DE2E97FF09C09095809597
:100DB000709561957F4F8F4F9F4F6894D7F82AE0C9
:100DC00030E0A4010E940108C82EC818AC2C5D2C8C
:100DD000D6FE0CC0E89450F8CB1440F4D4FE05C005
:100DE000D2FC03C05D2D5E7E552EAB2C54FE98C008
:100DF000FE01EC0DF11D8081803309F08AC0652D64
:100E0000697E562E752D7870372E53FC98C050FE93
:100E100092C0BC2CA41418F44C0CB42CBA1854FE78
:100E200094C0B70180E390E00E94D10752FE09C050
:100E300088E790E051FE02C088E590E0B7010E948B
:100E4000D107CB1408F48DC0CA94D12C8FEFC81AE7
:100E5000D80AC80CD91CD6018E916D01B70190E05B
:100E60000E94D1078C149D04B1F758CF6191719104
:100E7000072E000C880B990B93CFD52CE894D4F84F
:100E80002AE030E0853739F1F52DF97FDF2E803704
:100E9000A9F058F48835A9F08F36D9F0F70186818A
:100EA00097812F96E2E10C947B088837B9F7D4FE3E
:100EB00002C06894D2F820E130E00DC06894D4F804
:100EC000F6CF54FE03C02F2F2660D22E20E132E051
:100ED00002C028E030E0F801D7FE15C041915191E1
:100EE000619171914C875D876E877F878F01A40127
:100EF0006C857D858E859F850E940108C82EC81847
:100F0000E894D7F863CF81919191AC0170E060E0F3
:100F1000E9CF52FC02C0A39475CFA394A39472CFDF
:100F2000852D867809F46ECFF6CFB70180E290E088
:100F30000E94D107A394A414C0F3312C70CF342C99
:100F40003A18A41408F46BCFF8CF852D867809F4ED
:100F500078CF8BE251FE80E257FC8DE2B70190E042
:100F60006ECFB70180E390E00E94D107BA9469CFB9
:100F70008FEF9FEF96CFFC010590615070400110FC
:100F8000D8F7809590958E0F9F1F0895FC016150B2
:100F9000704001900110D8F7809590958E0F9F1F9B
:100FA00008950F931F93CF93DF93182F092FEB0111
:100FB0008B8181FD09C01FEF0FEF812F902FDF91F3
:100FC000CF911F910F91089582FF14C02E813F8110
:100FD0008C819D81281739073CF4E881F981CF0184
:100FE00001969983888310838E819F8101969F83C8
:100FF0008E83E3CFE885F985812F0995892BA1F3AD
:10100000DACFFA01AA27283051F1203181F1E89492
:101010006F936E7F6E5F7F4F8F4F9F4FAF4FB1E0EB
:101020003ED0B4E03CD0670F781F891F9A1FA11DE6
:10103000680F791F8A1F911DA11D6A0F711D811DE7
:10104000911DA11D20D009F468943F912AE0269FAC
:1010500011243019305D3193DEF6CF010895462F0B
:101060004770405D4193B3E00FD0C9F7F6CF462FEC
:101070004F70405D4A3318F0495D31FD4052419355
:1010800002D0A9F7EACFB4E0A69597958795779512
:101090006795BA95C9F700976105710508959B0199
:1010A000AC010A2E06945795479537952795BA9522
:1010B000C9F7620F731F841F951FA01D08952F92FB
:1010C0003F924F925F926F927F928F929F92AF92D8
:1010D000BF92CF92DF92EF92FF920F931F93CF9325
:1010E000DF93CDB7DEB7CA1BDB0B0FB6F894DEBFBC
:1010F0000FBECDBF09942A88398848885F846E84E2
:101100007D848C849B84AA84B984C884DF80EE802B
:10111000FD800C811B81AA81B981CE0FD11D0FB634
:10112000F894DEBF0FBECDBFED010895F894FFCF58
:1011300056657273696F6E3A2030782578202020CA
:1011400052454144455220464F554E440056657223
:1011500073696F6E3A2030782578202020524541FF
:10116000444552204E4F5420464F554E44000A0DE0
:10117000004341524420464F554E442020004D69C3
:10118000666172655F4F6E655F53353020464F551F
:101190004E4420202000546167547970653A203015
:1011A000782578257820005549443A2030782578EC
:1011B000257825782578200043415244204E4F540D
:1011C00020464F554E440043414E5F4D6573736159
:1011D0006765206D69742064657220494420307809
:0E11E000257820656D7066616E67656E200073
:00000001FF
